{
  "contractName": "VacunaGuate",
  "abi": [
    {
      "anonymous": false,
      "inputs": [
        {
          "indexed": true,
          "internalType": "address",
          "name": "_to",
          "type": "address"
        },
        {
          "indexed": true,
          "internalType": "uint256",
          "name": "_tokenId",
          "type": "uint256"
        }
      ],
      "name": "Mint",
      "type": "event"
    },
    {
      "anonymous": false,
      "inputs": [
        {
          "indexed": true,
          "internalType": "address",
          "name": "_from",
          "type": "address"
        },
        {
          "indexed": true,
          "internalType": "address",
          "name": "_to",
          "type": "address"
        },
        {
          "indexed": true,
          "internalType": "uint256",
          "name": "_tokenId",
          "type": "uint256"
        }
      ],
      "name": "Transfer",
      "type": "event"
    },
    {
      "inputs": [
        {
          "internalType": "address",
          "name": "_to",
          "type": "address"
        },
        {
          "internalType": "uint256",
          "name": "tokenId",
          "type": "uint256"
        }
      ],
      "name": "mint",
      "outputs": [],
      "stateMutability": "nonpayable",
      "type": "function"
    },
    {
      "inputs": [
        {
          "internalType": "address",
          "name": "_to",
          "type": "address"
        },
        {
          "internalType": "uint256",
          "name": "_tokenId",
          "type": "uint256"
        }
      ],
      "name": "transfer",
      "outputs": [],
      "stateMutability": "nonpayable",
      "type": "function"
    },
    {
      "inputs": [
        {
          "internalType": "address",
          "name": "from",
          "type": "address"
        }
      ],
      "name": "getTokensOfId",
      "outputs": [
        {
          "internalType": "uint256[]",
          "name": "",
          "type": "uint256[]"
        }
      ],
      "stateMutability": "view",
      "type": "function",
      "constant": true
    },
    {
      "inputs": [],
      "name": "getTokenCount",
      "outputs": [
        {
          "internalType": "uint256",
          "name": "",
          "type": "uint256"
        }
      ],
      "stateMutability": "view",
      "type": "function",
      "constant": true
    },
    {
      "inputs": [
        {
          "internalType": "uint256",
          "name": "token",
          "type": "uint256"
        }
      ],
      "name": "getOwnerOfToken",
      "outputs": [
        {
          "internalType": "address",
          "name": "",
          "type": "address"
        }
      ],
      "stateMutability": "view",
      "type": "function",
      "constant": true
    },
    {
      "inputs": [],
      "name": "getGeneratedTokens",
      "outputs": [
        {
          "internalType": "uint256[]",
          "name": "",
          "type": "uint256[]"
        }
      ],
      "stateMutability": "view",
      "type": "function",
      "constant": true
    }
  ],
  "bytecode": "0x60806040526000805534801561001457600080fd5b50610aaa806100246000396000f3fe608060405234801561001057600080fd5b50600436106100625760003560e01c80631179117b1461006757806340c10f191461008557806368f028d8146100a157806378a89567146100d15780637f1dd80b146100ef578063a9059cbb1461011f575b600080fd5b61006f61013b565b60405161007c9190610800565b60405180910390f35b61009f600480360381019061009a91906108b1565b610193565b005b6100bb60048036038101906100b691906108f1565b6102d3565b6040516100c89190610800565b60405180910390f35b6100d9610449565b6040516100e6919061092d565b60405180910390f35b61010960048036038101906101049190610948565b610452565b6040516101169190610984565b60405180910390f35b610139600480360381019061013491906108b1565b61048f565b005b6060600380548060200260200160405190810160405280929190818152602001828054801561018957602002820191906000526020600020905b815481526020019060010190808311610175575b5050505050905090565b816001600083815260200190815260200160002060006101000a81548173ffffffffffffffffffffffffffffffffffffffff021916908373ffffffffffffffffffffffffffffffffffffffff160217905550600260008373ffffffffffffffffffffffffffffffffffffffff1673ffffffffffffffffffffffffffffffffffffffff1681526020019081526020016000208190806001815401808255809150506001900390600052602060002001600090919091909150556003819080600181540180825580915050600190039060005260206000200160009091909190915055600080815480929190610286906109ce565b9190505550808273ffffffffffffffffffffffffffffffffffffffff167f0f6798a560793a54c3bcfe86a93cde1e73087d944c0ea20544137d412139688560405160405180910390a35050565b60606000600260008473ffffffffffffffffffffffffffffffffffffffff1673ffffffffffffffffffffffffffffffffffffffff1681526020019081526020016000208054905067ffffffffffffffff81111561033357610332610a16565b5b6040519080825280602002602001820160405280156103615781602001602082028036833780820191505090505b50905060005b600260008573ffffffffffffffffffffffffffffffffffffffff1673ffffffffffffffffffffffffffffffffffffffff1681526020019081526020016000208054905081101561043f57600260008573ffffffffffffffffffffffffffffffffffffffff1673ffffffffffffffffffffffffffffffffffffffff168152602001908152602001600020818154811061040257610401610a45565b5b90600052602060002001548282815181106104205761041f610a45565b5b6020026020010181815250508080610437906109ce565b915050610367565b5080915050919050565b60008054905090565b60006001600083815260200190815260200160002060009054906101000a900473ffffffffffffffffffffffffffffffffffffffff169050919050565b6001600082815260200190815260200160002060009054906101000a900473ffffffffffffffffffffffffffffffffffffffff1673ffffffffffffffffffffffffffffffffffffffff163373ffffffffffffffffffffffffffffffffffffffff16146104fa57600080fd5b816001600083815260200190815260200160002060006101000a81548173ffffffffffffffffffffffffffffffffffffffff021916908373ffffffffffffffffffffffffffffffffffffffff160217905550600260008373ffffffffffffffffffffffffffffffffffffffff1673ffffffffffffffffffffffffffffffffffffffff16815260200190815260200160002081908060018154018082558091505060019003906000526020600020016000909190919091505560005b600260003373ffffffffffffffffffffffffffffffffffffffff1673ffffffffffffffffffffffffffffffffffffffff168152602001908152602001600020805490508110156106d85781600260003373ffffffffffffffffffffffffffffffffffffffff1673ffffffffffffffffffffffffffffffffffffffff168152602001908152602001600020828154811061065157610650610a45565b5b9060005260206000200154036106c557600260003373ffffffffffffffffffffffffffffffffffffffff1673ffffffffffffffffffffffffffffffffffffffff16815260200190815260200160002081815481106106b2576106b1610a45565b5b90600052602060002001600090556106d8565b80806106d0906109ce565b9150506105b5565b50808273ffffffffffffffffffffffffffffffffffffffff163373ffffffffffffffffffffffffffffffffffffffff167fddf252ad1be2c89b69c2b068fc378daa952ba7f163c4a11628f55a4df523b3ef60405160405180910390a45050565b600081519050919050565b600082825260208201905092915050565b6000819050602082019050919050565b6000819050919050565b61077781610764565b82525050565b6000610789838361076e565b60208301905092915050565b6000602082019050919050565b60006107ad82610738565b6107b78185610743565b93506107c283610754565b8060005b838110156107f35781516107da888261077d565b97506107e583610795565b9250506001810190506107c6565b5085935050505092915050565b6000602082019050818103600083015261081a81846107a2565b905092915050565b600080fd5b600073ffffffffffffffffffffffffffffffffffffffff82169050919050565b600061085282610827565b9050919050565b61086281610847565b811461086d57600080fd5b50565b60008135905061087f81610859565b92915050565b61088e81610764565b811461089957600080fd5b50565b6000813590506108ab81610885565b92915050565b600080604083850312156108c8576108c7610822565b5b60006108d685828601610870565b92505060206108e78582860161089c565b9150509250929050565b60006020828403121561090757610906610822565b5b600061091584828501610870565b91505092915050565b61092781610764565b82525050565b6000602082019050610942600083018461091e565b92915050565b60006020828403121561095e5761095d610822565b5b600061096c8482850161089c565b91505092915050565b61097e81610847565b82525050565b60006020820190506109996000830184610975565b92915050565b7f4e487b7100000000000000000000000000000000000000000000000000000000600052601160045260246000fd5b60006109d982610764565b91507fffffffffffffffffffffffffffffffffffffffffffffffffffffffffffffffff8203610a0b57610a0a61099f565b5b600182019050919050565b7f4e487b7100000000000000000000000000000000000000000000000000000000600052604160045260246000fd5b7f4e487b7100000000000000000000000000000000000000000000000000000000600052603260045260246000fdfea26469706673582212206cab64f71be76f58e244eca02eaef50471b481ccf47a7aceaaa23ce232604f3164736f6c634300080d0033",
  "immutableReferences": {},
  "source": "// SPDX-License-Identifier: GPL-3.0\n\n/**\n * @title VacunaGuate\n * @dev Define an NFT representing a COVD vaccine group.\n */\n\npragma solidity ^0.8.4;\n\ncontract VacunaGuate {\n    event Mint(address indexed _to, uint256 indexed _tokenId);\n    event Transfer(address indexed _from, address indexed _to, uint256 indexed _tokenId);\n\n    uint256 tokenCounter = 0;\n    mapping(uint256 => address) idToOwner;\n    mapping(address => uint256[]) ownerToIds;\n    uint256[] generatedTokens;\n\n    function mint(address _to, uint256 tokenId) public {\n        idToOwner[tokenId] = _to;\n        ownerToIds[_to].push(tokenId);\n        generatedTokens.push(tokenId);\n        tokenCounter++;\n        emit Mint(_to, tokenId);\n    }\n\n    function transfer(address _to, uint256 _tokenId) public {\n        require(msg.sender == idToOwner[_tokenId]);\n        idToOwner[_tokenId] = _to;\n        ownerToIds[_to].push(_tokenId);\n        for (uint i = 0; i < ownerToIds[msg.sender].length; i++) {\n            if (ownerToIds[msg.sender][i] == _tokenId) {\n                delete ownerToIds[msg.sender][i];\n                break;\n            }\n        }\n        emit Transfer(msg.sender, _to, _tokenId);\n    }\n\n    function getTokensOfId(address from) public view returns (uint256[] memory) {\n        uint256[] memory tokens = new uint256[](ownerToIds[from].length);\n        for (uint i = 0 ; i< ownerToIds[from].length ; i++) {\n            tokens[i] = ownerToIds[from][i];\n        }\n        return tokens;\n    }\n\n    function getTokenCount() public view returns (uint256) {\n        return tokenCounter;\n    }\n\n    function getOwnerOfToken(uint256 token) public view returns(address) {\n        return idToOwner[token];\n    }\n\n    function getGeneratedTokens() public view returns (uint256[] memory) {\n        return generatedTokens;\n    }\n}",
  "sourcePath": "/Users/marcofuentes/Documents/UVG/9no/Blockchain/vacunaguate_back/contracts/1_VacunaGuate.sol",
  "compiler": {
    "name": "solc",
    "version": "0.8.13+commit.abaa5c0e.Emscripten.clang"
  },
  "schemaVersion": "3.4.7",
  "updatedAt": "2022-06-07T21:41:26.048Z",
  "networkType": "ethereum",
  "devdoc": {
    "kind": "dev",
    "methods": {},
    "version": 1
  },
  "userdoc": {
    "kind": "user",
    "methods": {},
    "version": 1
  }
}