{
  "contractName": "VacunaGuate",
  "abi": [
    {
      "anonymous": false,
      "inputs": [
        {
          "indexed": true,
          "internalType": "address",
          "name": "_to",
          "type": "address"
        },
        {
          "indexed": true,
          "internalType": "uint256",
          "name": "_tokenId",
          "type": "uint256"
        }
      ],
      "name": "Mint",
      "type": "event"
    },
    {
      "anonymous": false,
      "inputs": [
        {
          "indexed": true,
          "internalType": "address",
          "name": "_from",
          "type": "address"
        },
        {
          "indexed": true,
          "internalType": "address",
          "name": "_to",
          "type": "address"
        },
        {
          "indexed": true,
          "internalType": "uint256",
          "name": "_tokenId",
          "type": "uint256"
        }
      ],
      "name": "Transfer",
      "type": "event"
    },
    {
      "inputs": [
        {
          "internalType": "address",
          "name": "_to",
          "type": "address"
        },
        {
          "internalType": "uint256",
          "name": "tokenId",
          "type": "uint256"
        }
      ],
      "name": "mint",
      "outputs": [],
      "stateMutability": "nonpayable",
      "type": "function"
    },
    {
      "inputs": [
        {
          "internalType": "address",
          "name": "_to",
          "type": "address"
        },
        {
          "internalType": "uint256",
          "name": "_tokenId",
          "type": "uint256"
        }
      ],
      "name": "transfer",
      "outputs": [],
      "stateMutability": "nonpayable",
      "type": "function"
    },
    {
      "inputs": [
        {
          "internalType": "address",
          "name": "from",
          "type": "address"
        }
      ],
      "name": "getTokensOfId",
      "outputs": [
        {
          "internalType": "uint256[]",
          "name": "",
          "type": "uint256[]"
        }
      ],
      "stateMutability": "view",
      "type": "function",
      "constant": true
    },
    {
      "inputs": [],
      "name": "getTokenCount",
      "outputs": [
        {
          "internalType": "uint256",
          "name": "",
          "type": "uint256"
        }
      ],
      "stateMutability": "view",
      "type": "function",
      "constant": true
    },
    {
      "inputs": [
        {
          "internalType": "uint256",
          "name": "token",
          "type": "uint256"
        }
      ],
      "name": "getOwnerOfToken",
      "outputs": [
        {
          "internalType": "address",
          "name": "",
          "type": "address"
        }
      ],
      "stateMutability": "view",
      "type": "function",
      "constant": true
    }
  ],
  "bytecode": "0x60806040526000805534801561001457600080fd5b50610a00806100246000396000f3fe608060405234801561001057600080fd5b50600436106100575760003560e01c806340c10f191461005c57806368f028d81461007857806378a89567146100a85780637f1dd80b146100c6578063a9059cbb146100f6575b600080fd5b61007660048036038101906100719190610727565b610112565b005b610092600480360381019061008d9190610767565b610229565b60405161009f9190610852565b60405180910390f35b6100b061039f565b6040516100bd9190610883565b60405180910390f35b6100e060048036038101906100db919061089e565b6103a8565b6040516100ed91906108da565b60405180910390f35b610110600480360381019061010b9190610727565b6103e5565b005b816001600083815260200190815260200160002060006101000a81548173ffffffffffffffffffffffffffffffffffffffff021916908373ffffffffffffffffffffffffffffffffffffffff160217905550600260008373ffffffffffffffffffffffffffffffffffffffff1673ffffffffffffffffffffffffffffffffffffffff1681526020019081526020016000208190806001815401808255809150506001900390600052602060002001600090919091909150556000808154809291906101dc90610924565b9190505550808273ffffffffffffffffffffffffffffffffffffffff167f0f6798a560793a54c3bcfe86a93cde1e73087d944c0ea20544137d412139688560405160405180910390a35050565b60606000600260008473ffffffffffffffffffffffffffffffffffffffff1673ffffffffffffffffffffffffffffffffffffffff1681526020019081526020016000208054905067ffffffffffffffff8111156102895761028861096c565b5b6040519080825280602002602001820160405280156102b75781602001602082028036833780820191505090505b50905060005b600260008573ffffffffffffffffffffffffffffffffffffffff1673ffffffffffffffffffffffffffffffffffffffff1681526020019081526020016000208054905081101561039557600260008573ffffffffffffffffffffffffffffffffffffffff1673ffffffffffffffffffffffffffffffffffffffff16815260200190815260200160002081815481106103585761035761099b565b5b90600052602060002001548282815181106103765761037561099b565b5b602002602001018181525050808061038d90610924565b9150506102bd565b5080915050919050565b60008054905090565b60006001600083815260200190815260200160002060009054906101000a900473ffffffffffffffffffffffffffffffffffffffff169050919050565b6001600082815260200190815260200160002060009054906101000a900473ffffffffffffffffffffffffffffffffffffffff1673ffffffffffffffffffffffffffffffffffffffff163373ffffffffffffffffffffffffffffffffffffffff161461045057600080fd5b816001600083815260200190815260200160002060006101000a81548173ffffffffffffffffffffffffffffffffffffffff021916908373ffffffffffffffffffffffffffffffffffffffff160217905550600260008373ffffffffffffffffffffffffffffffffffffffff1673ffffffffffffffffffffffffffffffffffffffff16815260200190815260200160002081908060018154018082558091505060019003906000526020600020016000909190919091505560005b600260003373ffffffffffffffffffffffffffffffffffffffff1673ffffffffffffffffffffffffffffffffffffffff1681526020019081526020016000208054905081101561062e5781600260003373ffffffffffffffffffffffffffffffffffffffff1673ffffffffffffffffffffffffffffffffffffffff16815260200190815260200160002082815481106105a7576105a661099b565b5b90600052602060002001540361061b57600260003373ffffffffffffffffffffffffffffffffffffffff1673ffffffffffffffffffffffffffffffffffffffff16815260200190815260200160002081815481106106085761060761099b565b5b906000526020600020016000905561062e565b808061062690610924565b91505061050b565b50808273ffffffffffffffffffffffffffffffffffffffff163373ffffffffffffffffffffffffffffffffffffffff167fddf252ad1be2c89b69c2b068fc378daa952ba7f163c4a11628f55a4df523b3ef60405160405180910390a45050565b600080fd5b600073ffffffffffffffffffffffffffffffffffffffff82169050919050565b60006106be82610693565b9050919050565b6106ce816106b3565b81146106d957600080fd5b50565b6000813590506106eb816106c5565b92915050565b6000819050919050565b610704816106f1565b811461070f57600080fd5b50565b600081359050610721816106fb565b92915050565b6000806040838503121561073e5761073d61068e565b5b600061074c858286016106dc565b925050602061075d85828601610712565b9150509250929050565b60006020828403121561077d5761077c61068e565b5b600061078b848285016106dc565b91505092915050565b600081519050919050565b600082825260208201905092915050565b6000819050602082019050919050565b6107c9816106f1565b82525050565b60006107db83836107c0565b60208301905092915050565b6000602082019050919050565b60006107ff82610794565b610809818561079f565b9350610814836107b0565b8060005b8381101561084557815161082c88826107cf565b9750610837836107e7565b925050600181019050610818565b5085935050505092915050565b6000602082019050818103600083015261086c81846107f4565b905092915050565b61087d816106f1565b82525050565b60006020820190506108986000830184610874565b92915050565b6000602082840312156108b4576108b361068e565b5b60006108c284828501610712565b91505092915050565b6108d4816106b3565b82525050565b60006020820190506108ef60008301846108cb565b92915050565b7f4e487b7100000000000000000000000000000000000000000000000000000000600052601160045260246000fd5b600061092f826106f1565b91507fffffffffffffffffffffffffffffffffffffffffffffffffffffffffffffffff8203610961576109606108f5565b5b600182019050919050565b7f4e487b7100000000000000000000000000000000000000000000000000000000600052604160045260246000fd5b7f4e487b7100000000000000000000000000000000000000000000000000000000600052603260045260246000fdfea2646970667358221220935abfb01cd2ef9bd743bb5ac9f575d4b31e318f14b97d7d722e99a08477c7df64736f6c634300080d0033",
  "immutableReferences": {},
  "source": "// SPDX-License-Identifier: GPL-3.0\n\n/**\n * @title VacunaGuate\n * @dev Define an NFT representing a COVD vaccine group.\n */\n\npragma solidity ^0.8.4;\n\ncontract VacunaGuate {\n    event Mint(address indexed _to, uint256 indexed _tokenId);\n    event Transfer(address indexed _from, address indexed _to, uint256 indexed _tokenId);\n\n    uint256 tokenCounter = 0;\n    mapping(uint256 => address) idToOwner;\n    mapping(address => uint256[]) ownerToIds;\n\n    function mint(address _to, uint256 tokenId) public {\n        idToOwner[tokenId] = _to;\n        ownerToIds[_to].push(tokenId);\n        tokenCounter++;\n        emit Mint(_to, tokenId);\n    }\n\n    function transfer(address _to, uint256 _tokenId) public {\n        require(msg.sender == idToOwner[_tokenId]);\n        idToOwner[_tokenId] = _to;\n        ownerToIds[_to].push(_tokenId);\n        for (uint i = 0; i < ownerToIds[msg.sender].length; i++) {\n            if (ownerToIds[msg.sender][i] == _tokenId) {\n                delete ownerToIds[msg.sender][i];\n                break;\n            }\n        }\n        emit Transfer(msg.sender, _to, _tokenId);\n    }\n\n    function getTokensOfId(address from) public view returns (uint256[] memory) {\n        uint256[] memory tokens = new uint256[](ownerToIds[from].length);\n        for (uint i = 0 ; i< ownerToIds[from].length ; i++) {\n            tokens[i] = ownerToIds[from][i];\n        }\n        return tokens;\n    }\n\n    function getTokenCount() public view returns (uint256) {\n        return tokenCounter;\n    }\n\n    function getOwnerOfToken(uint256 token) public view returns(address) {\n        return idToOwner[token];\n    }\n}",
  "sourcePath": "/Users/marcofuentes/Documents/UVG/9no/Blockchain/vacunaguate_back/contracts/1_VacunaGuate.sol",
  "compiler": {
    "name": "solc",
    "version": "0.8.13+commit.abaa5c0e.Emscripten.clang"
  },
  "schemaVersion": "3.4.7",
  "updatedAt": "2022-06-07T01:24:43.489Z",
  "networkType": "ethereum",
  "devdoc": {
    "kind": "dev",
    "methods": {},
    "version": 1
  },
  "userdoc": {
    "kind": "user",
    "methods": {},
    "version": 1
  }
}