{
  "contractName": "VacunaGuate",
  "abi": [
    {
      "anonymous": false,
      "inputs": [
        {
          "indexed": true,
          "internalType": "address",
          "name": "_to",
          "type": "address"
        },
        {
          "indexed": true,
          "internalType": "uint256",
          "name": "_tokenId",
          "type": "uint256"
        }
      ],
      "name": "Mint",
      "type": "event"
    },
    {
      "anonymous": false,
      "inputs": [
        {
          "indexed": true,
          "internalType": "address",
          "name": "_from",
          "type": "address"
        },
        {
          "indexed": true,
          "internalType": "address",
          "name": "_to",
          "type": "address"
        },
        {
          "indexed": true,
          "internalType": "uint256",
          "name": "_tokenId",
          "type": "uint256"
        }
      ],
      "name": "Transfer",
      "type": "event"
    },
    {
      "inputs": [
        {
          "internalType": "address",
          "name": "_to",
          "type": "address"
        }
      ],
      "name": "mint",
      "outputs": [],
      "stateMutability": "nonpayable",
      "type": "function"
    },
    {
      "inputs": [
        {
          "internalType": "address",
          "name": "_to",
          "type": "address"
        },
        {
          "internalType": "uint256",
          "name": "_tokenId",
          "type": "uint256"
        }
      ],
      "name": "transfer",
      "outputs": [],
      "stateMutability": "nonpayable",
      "type": "function"
    },
    {
      "inputs": [
        {
          "internalType": "address",
          "name": "from",
          "type": "address"
        }
      ],
      "name": "getTokensOfId",
      "outputs": [
        {
          "internalType": "uint256[]",
          "name": "",
          "type": "uint256[]"
        }
      ],
      "stateMutability": "view",
      "type": "function",
      "constant": true
    },
    {
      "inputs": [],
      "name": "getTokens",
      "outputs": [
        {
          "internalType": "address[]",
          "name": "",
          "type": "address[]"
        }
      ],
      "stateMutability": "view",
      "type": "function",
      "constant": true
    }
  ],
  "bytecode": "0x6080604052600160005534801561001557600080fd5b50610875806100256000396000f3fe608060405234801561001057600080fd5b506004361061004c5760003560e01c806368f028d8146100515780636a62784214610081578063a9059cbb1461009d578063aa6ca808146100b9575b600080fd5b61006b60048036038101906100669190610507565b6100d7565b60405161007891906105fc565b60405180910390f35b61009b60048036038101906100969190610507565b6101d8565b005b6100b760048036038101906100b2919061064a565b61028f565b005b6100c16103ab565b6040516100ce9190610748565b60405180910390f35b60606000805467ffffffffffffffff8111156100f6576100f561076a565b5b6040519080825280602002602001820160405280156101245781602001602082028036833780820191505090505b50905060005b6000548110156101ce578373ffffffffffffffffffffffffffffffffffffffff166001600083815260200190815260200160002060009054906101000a900473ffffffffffffffffffffffffffffffffffffffff1673ffffffffffffffffffffffffffffffffffffffff16036101bb57808282815181106101ae576101ad610799565b5b6020026020010181815250505b80806101c6906107f7565b91505061012a565b5080915050919050565b600080549050816001600083815260200190815260200160002060006101000a81548173ffffffffffffffffffffffffffffffffffffffff021916908373ffffffffffffffffffffffffffffffffffffffff160217905550600080815480929190610242906107f7565b9190505550808273ffffffffffffffffffffffffffffffffffffffff167f0f6798a560793a54c3bcfe86a93cde1e73087d944c0ea20544137d412139688560405160405180910390a35050565b6001600082815260200190815260200160002060009054906101000a900473ffffffffffffffffffffffffffffffffffffffff1673ffffffffffffffffffffffffffffffffffffffff163373ffffffffffffffffffffffffffffffffffffffff16146102fa57600080fd5b816001600083815260200190815260200160002060006101000a81548173ffffffffffffffffffffffffffffffffffffffff021916908373ffffffffffffffffffffffffffffffffffffffff160217905550808273ffffffffffffffffffffffffffffffffffffffff163373ffffffffffffffffffffffffffffffffffffffff167fddf252ad1be2c89b69c2b068fc378daa952ba7f163c4a11628f55a4df523b3ef60405160405180910390a45050565b60606000805467ffffffffffffffff8111156103ca576103c961076a565b5b6040519080825280602002602001820160405280156103f85781602001602082028036833780820191505090505b50905060005b60005481101561049c576001600082815260200190815260200160002060009054906101000a900473ffffffffffffffffffffffffffffffffffffffff1682828151811061044f5761044e610799565b5b602002602001019073ffffffffffffffffffffffffffffffffffffffff16908173ffffffffffffffffffffffffffffffffffffffff16815250508080610494906107f7565b9150506103fe565b508091505090565b600080fd5b600073ffffffffffffffffffffffffffffffffffffffff82169050919050565b60006104d4826104a9565b9050919050565b6104e4816104c9565b81146104ef57600080fd5b50565b600081359050610501816104db565b92915050565b60006020828403121561051d5761051c6104a4565b5b600061052b848285016104f2565b91505092915050565b600081519050919050565b600082825260208201905092915050565b6000819050602082019050919050565b6000819050919050565b61057381610560565b82525050565b6000610585838361056a565b60208301905092915050565b6000602082019050919050565b60006105a982610534565b6105b3818561053f565b93506105be83610550565b8060005b838110156105ef5781516105d68882610579565b97506105e183610591565b9250506001810190506105c2565b5085935050505092915050565b60006020820190508181036000830152610616818461059e565b905092915050565b61062781610560565b811461063257600080fd5b50565b6000813590506106448161061e565b92915050565b60008060408385031215610661576106606104a4565b5b600061066f858286016104f2565b925050602061068085828601610635565b9150509250929050565b600081519050919050565b600082825260208201905092915050565b6000819050602082019050919050565b6106bf816104c9565b82525050565b60006106d183836106b6565b60208301905092915050565b6000602082019050919050565b60006106f58261068a565b6106ff8185610695565b935061070a836106a6565b8060005b8381101561073b57815161072288826106c5565b975061072d836106dd565b92505060018101905061070e565b5085935050505092915050565b6000602082019050818103600083015261076281846106ea565b905092915050565b7f4e487b7100000000000000000000000000000000000000000000000000000000600052604160045260246000fd5b7f4e487b7100000000000000000000000000000000000000000000000000000000600052603260045260246000fd5b7f4e487b7100000000000000000000000000000000000000000000000000000000600052601160045260246000fd5b600061080282610560565b91507fffffffffffffffffffffffffffffffffffffffffffffffffffffffffffffffff8203610834576108336107c8565b5b60018201905091905056fea264697066735822122012ba4a933ac1984db7f7112b2b8166d07f9df7b6aae60a72d5b0948a96678e0964736f6c634300080d0033",
  "immutableReferences": {},
  "source": "// SPDX-License-Identifier: GPL-3.0\n\n/**\n * @title VacunaGuate\n * @dev Define an NFT representing a COVD vaccine group.\n */\n\npragma solidity ^0.8.4;\n\ncontract VacunaGuate {\n    event Mint(address indexed _to, uint256 indexed _tokenId);\n    event Transfer(address indexed _from, address indexed _to, uint256 indexed _tokenId);\n\n    uint256 tokenCounter = 1;\n    mapping(uint256 => address) internal idToOwner;\n\n    function mint(address _to) public {\n        uint256 _tokenId = tokenCounter;\n        idToOwner[_tokenId] = _to;\n        tokenCounter++;\n        emit Mint(_to, _tokenId);\n    }\n\n    function transfer(address _to, uint256 _tokenId) public {\n        require(msg.sender == idToOwner[_tokenId]);\n        idToOwner[_tokenId] = _to;\n        emit Transfer(msg.sender, _to, _tokenId);\n    }\n\n    function getTokensOfId(address from) public view returns (uint256[] memory) {\n        uint256[] memory _tokens = new uint256[](tokenCounter);\n        for (uint256 i = 0; i < tokenCounter; i++) {\n            if (idToOwner[i] == from) {\n                _tokens[i] = i;\n            }\n        }\n        return _tokens;\n    }\n\n    function getTokens() public view returns(address[] memory) {\n        address[] memory _tokens = new address[](tokenCounter);\n        for (uint256 i = 0; i < tokenCounter; i++) {\n            _tokens[i] = idToOwner[i];\n        }\n        return _tokens;\n    }\n}",
  "sourcePath": "/Users/marcofuentes/Documents/UVG/9no/Blockchain/vacunaguate_back/contracts/1_VacunaGuate.sol",
  "compiler": {
    "name": "solc",
    "version": "0.8.13+commit.abaa5c0e.Emscripten.clang"
  },
  "schemaVersion": "3.4.7",
  "updatedAt": "2022-06-06T05:07:02.058Z",
  "networkType": "ethereum",
  "devdoc": {
    "kind": "dev",
    "methods": {},
    "version": 1
  },
  "userdoc": {
    "kind": "user",
    "methods": {},
    "version": 1
  }
}